:060000000A128A11122809
:10000800FE00030EF1000408F2000A08F300831250
:1000180003137F08F4000A128A11D9280A128A11D8
:1000280032298030831203138700B401AB01031413
:10003800AB0D2B08B7003708F600AA010314AA0D68
:10004800AC010314AC0D0A128A1179210A128A1123
:100058000A128A116D210A128A1132280630831277
:100068000313B9000E30B800B030B700B70B3A2808
:10007800B80B3A28B90B3A28831203132A08013A15
:10008800031D472848284D280130B7003708AD0719
:100098004D282D08823A031D522853286E28070838
:1000A800013A0319582859285F280708803A031D80
:1000B8005E285F286128F609612876083406031D42
:1000C800662867286A280310870C6D280310870D97
:1000D8006D28AD0136080A3A031D732874287A285A
:1000E800B6010130B7003708AF077A28B00103140A
:1000F800B00D3608203E8400831300088500B00147
:100108002F08063A031D89288A289028AF01013054
:10011800B7003708B5079028B1010314B10D2F08AF
:10012800203E840000088500B10135080A3A031D05
:100138009E289F28A528B5010130B7003708AE07CB
:10014800A528B2010314B20D3508203E840000082A
:100158008500B2012E08093A031DB328B428CB281C
:100168003508093A031DB928BA28CB282F08053ABB
:10017800031DBF28C028CB282E08093A031DC5280F
:10018800C628CB28B601AF01B501AE01CB28B30113
:100198000314B30D2E08203E840000088500B30127
:1001A800322832280A128A1112280B1CDC28DD2872
:1001B800E7280030061A01302C06031DE428E5283C
:1001C800E728AA090B100B1CEA28EB28F7280030AF
:1001D800861A01302C06031DF228F328F72801306F
:1001E80090060B10F7280B1CFA28FB280D29003065
:1001F800061B01302C06031D022903290D29DC30BA
:100208008E000B308F00B601AF01B501AE010B10A7
:100218000D290C1C102911292729DC308E000B30E0
:100228008F000130F0007008F7077708023A031DC5
:100238001E291F2925290130F0007008B607F7018B
:1002480025290C1027297408FF0073088A007208F2
:100258008400710E8300FE0E7E0E0900F701AD01C9
:10026800AE01AF01B001B101B201B301B401B501F2
:10027800B60183132D30FD000130FE006030FF0011
:10028800203084000A128A1153210A128A1183012C
:100298000A128A1115287E088A007F0882004F21D9
:1002A8000A128A118000840A04087D0603190034A2
:1002B800FF0A0319FE0A5329FC346034DA34F23495
:1002C8006634B634BE34E034FE34F63401340134D6
:1002D8000134DC30831203138E000B308F008B1730
:1002E8000B17831603130C140800F030F50075087B
:0C02F8008316031386048B178B15080077
:02400E0071FF40
:00000001FF
